:100000000C9434000C943E000C943E000C943E0082
:100010000C943E000C943E000C943E000C943E0068
:100020000C943E000C943E000C943E000C943E0058
:100030000C943E000C943E000C943E000C943E0048
:100040000C943E000C943E000C943E000C943E0038
:100050000C943E000C943E000C943E000C943E0028
:100060000C943E000C943E0011241FBECFEFD8E04C
:10007000DEBFCDBF0E9440000C9478000C940000BD
:100080000F931F93CF93DF93C8EFD7E000E117E200
:100090000E946E00C8010197F1F721972097C1F7E0
:1000A000C8EFD7E000E117E20E946300C8010197A2
:1000B000F1F721972097C1F780E090E0DF91CF9191
:1000C0001F910F91089588B18F70880F893008F0C3
:1000D00081E098B1907F892B88B9089588B18F709D
:1000E000869509F488E098B1907F892B88B90895A6
:0400F000F894FFCFB2
:00000001FF
