S00D00004C434420342E73726563F0
S11300000C9434000C9449000C9449000C9449005D
S11300100C9449000C9449000C9449000C94490038
S11300200C9449000C9449000C9449000C94490028
S11300300C9449000C9449000C9449000C94490018
S11300400C9449000C9449000C9449000C94490008
S11300500C9449000C9449000C9449000C944900F8
S11300600C9449000C94490011241FBECFEFD8E032
S1130070DEBFCDBF11E0A0E0B1E0E8EFF4E002C0E4
S113008005900D92A031B107D9F70E9445020C9456
S11300907A020C940000672B09F073C08A30910532
S11300A011F4289808958B30910511F42998089536
S11300B08C30910511F42A9808958D30910511F42E
S11300C02B9808958E30910511F42C9808958F3053
S11300D0910511F42D9808958031910511F42E980D
S11300E008958131910511F42F9808958431910573
S11300F011F4409808958531910511F441980895BB
S11301008631910511F4429808958731910511F4CF
S1130110439808958831910511F4449808958931DC
S1130120910511F4459808958A31910511F4469882
S113013008958E31910511F4589808958F319105E1
S113014011F4599808958032910511F45A9808953C
S11301508132910511F45B9808958232910511F46E
S11301605C9808958332910511F45D980895843262
S1130170910511F45E980895859709F073C05F980E
S113018008958A30910511F4289A08958B309105C9
S113019011F4299A08958C30910511F42A9A08953E
S11301A08D30910511F42B9A08958E30910511F438
S11301B02C9A08958F30910511F42D9A0895803169
S11301C0910511F42E9A08958131910511F42F9A15
S11301D008958431910511F4409A0895853191056B
S11301E011F4419A08958631910511F4429A0895C3
S11301F08731910511F4439A08958831910511F4DA
S1130200449A08958931910511F4459A08958A31E3
S1130210910511F4469A08958E31910511F4589A76
S113022008958F31910511F4599A089580329105FA
S113023011F45A9A08958132910511F45B9A089544
S11302408232910511F45C9A08958332910511F478
S11302505D9A08958432910511F45E9A0895859704
S113026009F45F9A0895CF93C82F80FF07C061E017
S113027070E082E290E00E944B0006C060E070E013
S113028082E290E00E944B00C1FF07C061E070E091
S113029083E290E00E944B0006C060E070E083E2DD
S11302A090E00E944B00C2FF07C061E070E084E26E
S11302B090E00E944B0006C060E070E084E290E0B1
S11302C00E944B00C3FF07C061E070E085E290E04C
S11302D00E944B0006C060E070E085E290E00E945E
S11302E04B00CF910895CF93C82F60E070E086E172
S11302F090E00E944B008C2F0E94330161E070E07B
S113030087E190E00E944B008FE99FE00197F1F7AD
S113031000C0000060E070E087E190E00E944B00C4
S11303208FE99FE00197F1F700C00000CF91089595
S113033080E00E94730181E00E9473010895CF93CD
S1130340C62F813059F480E8860F82958F700E9401
S113035073018C2F8F700E9473010CC0823051F492
S113036080EC860F82958F700E9473018C2F8F70A2
S11303700E947301CF91089580E00E9433012FEF12
S113038089EF90E0215080409040E1F700C00000E8
S113039083E00E9473018FE19EE40197F1F700C0AE
S11303A0000083E00E9473018FED9BEA0197F1F74F
S11303B000C0000083E00E94730182E00E94730188
S11303C082E00E94730188E00E94730180E00E9431
S11303D073018CE00E94730180E00E94730186E047
S11303E00E9473010895CF93C82F61E070E086E105
S11303F090E00E944B008C2F82958F700E943301F5
S113040061E070E087E190E00E944B008FE99FE09B
S11304100197F1F700C0000060E070E087E190E030
S11304200E944B008FE99FE00197F1F700C00000A4
S11304308C2F8F700E94330161E070E087E190E0BF
S11304400E944B008FE99FE00197F1F700C0000084
S113045060E070E087E190E00E944B008FE99FE04C
S11304600197F1F700C00000CF910895CF93DF9377
S1130470EC018881882331F021960E94F30189914F
S11304808111FBCFDF91CF910895CF93DF93CDB747
S1130490DEB72F970FB6F894DEBF0FBECDBF86E050
S11304A0E0E0F1E0DE01119601900D928A95E1F70A
S11304B0FE01379689E0DF011D928A95E9F7CE01A6
S11304C001960E946402FFCFCF93DF93EC018FEF7C
S11304D08AB987B90E94BC010E94980160E070E06B
S11304E080E090E00E949F01CE010E943602DF91DD
S10B04F0CF910895F894FFCFA9
S11304F84655434B200000000000000000000000A7
S9030000FC
