:1000000029C0000042C0000040C000003EC0000007
:100010003CC000003AC0000038C00000EAC2000046
:1000200034C0000032C0000030C000002EC000000C
:100030002CC000002AC0000028C0000026C000001C
:1000400024C0000022C0000020C000001EC000002C
:100050001CC0000011241FBECFE5D8E0DEBFCDBF1D
:1000600010E0A0E6B0E0E6EFF9E002C005900D92E6
:10007000A237B107D9F720E0A2E7B0E001C01D9296
:10008000AA38B207E1F701D2B4C4BACF80E487B985
:1000900087E886B9089597B1987F8770892B87B9CB
:1000A000369A3699FECF84B195B10895CF93DF93F8
:1000B000EC018FEF81BB84BB75D156D160E070E05D
:1000C00080E090E056D1CE01D2D163E070E082E0D2
:1000D00090E04FD18FED90E08ED183E490E08BD112
:1000E000DF91CF910895672B09F073C08A30910595
:1000F00011F4C09808958B30910511F4C1980895BA
:100100008C30910511F4C29808958D30910511F449
:10011000C39808958E30910511F4C49808958F30D6
:10012000910511F4C59808958031910511F4C69890
:1001300008958131910511F4C7980895843191058E
:1001400011F4A89808958531910511F4A99808959E
:100150008631910511F4AA9808958731910511F41B
:10016000AB9808958831910511F4AC9808958931C0
:10017000910511F4AD9808958A31910511F4AE9866
:1001800008958E31910511F4909808958F3191055D
:1001900011F4919808958032910511F49298089580
:1001A0008132910511F4939808958232910511F4EA
:1001B000949808958332910511F4959808958432A6
:1001C000910511F496980895859709F073C0979852
:1001D00008958A30910511F4C09A08958B309105E5
:1001E00011F4C19A08958C30910511F4C29A0895C2
:1001F0008D30910511F4C39A08958E30910511F454
:10020000C49A08958F30910511F4C59A08958031EC
:10021000910511F4C69A08958131910511F4C79A98
:1002200008958431910511F4A89A089585319105B6
:1002300011F4A99A08958631910511F4AA9A0895A6
:100240008731910511F4AB9A08958831910511F425
:10025000AC9A08958931910511F4AD9A08958A31C7
:10026000910511F4AE9A08958E31910511F4909A8A
:1002700008958F31910511F4919A08958032910576
:1002800011F4929A08958132910511F4939A089588
:100290008232910511F4949A08958332910511F4F4
:1002A000959A08958432910511F4969A0895859748
:1002B00009F4979A0895CF93C82F80FF06C061E094
:1002C00070E082E290E00FDF05C060E070E082E263
:1002D00090E009DFC1FF06C061E070E083E290E0DA
:1002E00002DF05C060E070E083E290E0FCDEC2FF68
:1002F00006C061E070E084E290E0F5DE05C060E0F9
:1003000070E084E290E0EFDEC3FF06C061E070E0E1
:1003100085E290E0E8DE05C060E070E085E290E014
:10032000E2DECF910895CF93C82F60E070E086E1C0
:1003300090E0D9DE8C2FBFDF61E070E087E190E0D4
:10034000D2DE89EF90E00197F1F700C0000060E095
:1003500070E087E190E0C7DE89EF90E00197F1F768
:1003600000C00000CF91089580E0DDDF81E0DBCFA9
:100370000895CF93C62F813049F480E8860F829587
:100380008F70D1DF8C2F8F70CEDF0AC0823041F4A6
:1003900080EC860F82958F70C6DF8C2F8F70C3DF45
:1003A000CF91089580E087DF87E893E10197F1F727
:1003B00000C0000083E0B7DF81EE94E00197F1F721
:1003C00000C0000083E0AFDF8DEB9AE00197F1F70A
:1003D00000C0000083E0A7DF82E0A5DF82E0A3DFAA
:1003E00088E0A1DF80E09FDF8CE09DDF80E09BDF85
:1003F00086E099CF0895CF93C82F61E070E086E141
:1004000090E071DE8C2F82958F7055DF61E070E097
:1004100087E190E068DE89EF90E00197F1F700C096
:10042000000060E070E087E190E05DDE89EF90E041
:100430000197F1F700C000008C2F8F703CDF61E066
:1004400070E087E190E04FDE89EF90E00197F1F7EF
:1004500000C0000060E070E087E190E044DE89EFDA
:1004600090E00197F1F700C00000CF910895CF937D
:10047000DF93EC018881882329F02196BCDF8991E4
:100480008111FCCFDF91CF910895CF93DF93CDB74A
:10049000DEB72F970FB6F894DEBF0FBECDBF81B386
:1004A0008FEF81BB8FE0E3E6F0E0DE011196019073
:1004B0000D928A95E1F7EADDCFD0C2D0CE01019648
:1004C000F5DD60917F00162F109510937E00A12E10
:1004D000B12CB5010B2C000C880B990B5ED16B0174
:1004E0007C01209176003091770040917800509106
:1004F0007900C1D02B013C016093760070937700A6
:100500008093780090937900809162008A9DB00179
:100510008B9D700D1124072E000C880B990B3DD17B
:100520004B015C016091610070E080E090E035D1AA
:10053000A3019201BED19B01AC01C501B4019BD0C6
:100540004B015C0120917A0030917B0040917C004E
:1005500050917D00C701B6018DD06B017C01609187
:10056000600070E080E090E018D19B01AC01C70111
:10057000B6019FD19B01AC01C501B4017CD0609351
:100580007200709373008093740090937500612FD4
:1005900070E080E090E0FFD060937A0070937B0081
:1005A00080937C0090937D00609172007091730045
:1005B0008091740090917500C2D0862F86958695A3
:1005C00047D02FE38DE093E0215080409040E1F749
:1005D00000C0000060E082E0CCDE80917F004AE055
:1005E00050E060E870E090E0C7D180E890E03FDF45
:1005F00068CF1F920F920FB60F9211242F933F9343
:100600004F935F936F937F938F939F93AF93BF931A
:10061000EF93FF9380E090E03EDD80937F00FF91B9
:10062000EF91BF91AF919F918F917F916F915F916A
:100630004F913F912F910F900FBE0F901F901895E3
:10064000B99A8FB581688FBD8EB58A608EBD0895C9
:1006500090E09BBD8ABD08958EB58B608EBD1DBC9C
:100660001CBC82E19AE79BBD8ABD89B7806189BFC6
:10067000789408955058BB27AA270ED0E0C0D1D057
:1006800030F0D6D020F031F49F3F11F41EF4C6C0F4
:100690000EF4E095E7FBBCC0E92FE2D080F3BA1777
:1006A000620773078407950718F071F49EF5FAC086
:1006B0000EF4E0950B2EBA2FA02D0B01B90190017D
:1006C0000C01CA01A0011124FF27591B99F0593FC1
:1006D00050F4503E68F11A16F040A22F232F342F09
:1006E0004427585FF3CF469537952795A795F04057
:1006F0005395C9F77EF41F16BA0B620B730B840B6C
:10070000BAF09150A1F0FF0FBB1F661F771F881F23
:10071000C2F70EC0BA0F621F731F841F48F487957B
:1007200077956795B795F7959E3F08F0B3CF93956A
:10073000880F08F09927EE0F97958795089598D020
:1007400088F09F5790F0B92F9927B751A0F0D1F0BA
:10075000660F771F881F991F1AF0BA95C9F712C044
:10076000B13081F09FD0B1E008959CC0672F782F01
:100770008827B85F39F0B93FCCF3869577956795B0
:10078000B395D9F73EF490958095709561957F4F1C
:100790008F4F9F4F0895E89409C097FB3EF49095C2
:1007A0008095709561957F4F8F4F9F4F9923A9F04A
:1007B000F92F96E9BB279395F695879577956795D9
:1007C000B795F111F8CFFAF4BB0F11F460FF1BC01D
:1007D0006F5F7F4F8F4F9F4F16C0882311F096E9B0
:1007E00011C0772321F09EE8872F762F05C066235E
:1007F00071F096E8862F70E060E02AF09A95660F17
:10080000771F881FDAF7880F9695879597F90895CF
:1008100097F99F6780E870E060E008959FEF80ECB3
:10082000089500240A941616170618060906089556
:1008300000240A9412161306140605060895092EBC
:100840000394000C11F4882352F0BB0F40F4BF2B2B
:1008500011F460FF04C06F5F7F4F8F4F9F4F08956B
:1008600057FD9058440F551F59F05F3F71F0479561
:10087000880F97FB991F61F09F3F79F08795089546
:10088000121613061406551FF2CF4695F1DF08C065
:10089000161617061806991FF1CF86957105610582
:1008A00008940895E894BB2766277727CB0197F92A
:1008B00008950BD0C4CFB5DF28F0BADF18F0952328
:1008C00009F0A6CFABCF1124EECFCADFA0F3959FDE
:1008D000D1F3950F50E0551F629FF001729FBB2727
:1008E000F00DB11D639FAA27F00DB11DAA1F649FD3
:1008F0006627B00DA11D661F829F2227B00DA11D86
:10090000621F739FB00DA11D621F839FA00D611D0B
:10091000221F749F3327A00D611D231F849F600D2C
:10092000211D822F762F6A2F11249F5750408AF065
:10093000E1F088234AF0EE0FFF1FBB1F661F771FF1
:10094000881F91505040A9F79E3F510570F060CF2D
:10095000AACF5F3FECF3983EDCF3869577956795D9
:10096000B795F795E7959F5FC1F7FE2B880F911D0F
:100970009695879597F908954532510518F44230B8
:1009800008F004C0FB011082CB010895BB274A3058
:1009900031F4992322F4BDE2909581959F4F01C0D7
:1009A000BB27FB015527AA27880F991FAA1FA41749
:1009B00010F0A41B83955051B9F7A05DAA3308F03D
:1009C000A95DA193009779F7B111B1931192CB0171
:1009D00000C0DC01FC01672F71917723E1F73297AA
:1009E00004C07C916D9370836291AE17BF07C8F30A
:0609F0000895F894FFCF0A
:1009F60001010554656D7065726174757265203A02
:020A06002000CE
:00000001FF
