S016000054696D65724E6F726D6C4D6F64652E7372656380
S11300000C942A000C9434000C9434000C943400A6
S11300100C9434000C9434000C9434000C9434008C
S11300200C9434000C9434000C9434000C9434007C
S11300300C9434000C9434000C9434000C9434006C
S11300400C9434000C9434000C9434000C9434005C
S11300500C94340011241FBECFE5D8E0DEBFCDBF21
S11300600E9436000C9450000C940000D8E0CD2F70
S1130070C7BB0E9445000E944C0092B78CB79813EE
S1130080F7CF88B38D2788BBF3CF83B7856083BF51
S113009083B7806183BF08958CB781608CBF089556
S10700A0F894FFCFFE
S9030000FC
