S00B000050574D2E7372656325
S11300000C942A000C9434000C9434000C943400A6
S11300100C9434000C9434000C9434000C9434008C
S11300200C9434000C9434000C9434000C9434007C
S11300300C9434000C9434000C9434000C9434006C
S11300400C9434000C9434000C9434000C9434005C
S11300500C94340011241FBECFE5D8E0DEBFCDBF21
S11300600E9444000C946E000C94000082E390E023
S113007020E030E0F9013197F1F7F9013197F1F718
S113008001970097B9F708958FB5826A8FBD8EB531
S11300908B618EBD87E893E197BD86BD81B3806394
S11300A081BB8CE391E007E112E0DCE3C1E003C033
S11300B09BBD8ABD0196883122E09207CCF30E9451
S11300C03600802F912F9BBD8ABD01978036910504
S11300D0D1F70E9436008D2F9C2FEDCFF894FFCFDF
S9030000FC
