:100000000C9434000C9449000C9449000C94490061
:100010000C9449000C9449000C9449000C9449003C
:100020000C9449000C9449000C9449000C9449002C
:100030000C9449000C9449000C9449000C9449001C
:100040000C9449000C9449000C9449000C9449000C
:100050000C9449000C9449000C9449000C944900FC
:100060000C9449000C94490011241FBECFEFD8E036
:10007000DEBFCDBF11E0A0E0B1E0EAE7F1E002C0F1
:1000800005900D92A430B107D9F70E944B000C9453
:10009000BB000C9400000E9497000E94A8000F2E45
:1000A000CC24CA94FFEBDF2EE12CF12CF02D0F2E87
:1000B00044244A94FFE75F2E612C712CF02D0F2E03
:1000C00088248A94FFE39F2EA12CB12CF02DC0E848
:1000D000DCE00E94B300813749F4809200019092E5
:1000E0000101A0920201B092030113C0883649F4C5
:1000F000409200015092010160920201709203014E
:1001000008C0C0920001D0920101E0920201F09279
:1001100003016091000170910101809102019091B1
:1001200003010E94A300CE010197F1F7D2CFE1E8CD
:10013000F0E0808189618083E0E8F0E08081836580
:100140008083219A089570938900609388000895B0
:100150009093C5008093C40088E18093C1008EE035
:100160008093C2000895E0ECF0E080818823ECF7F2
:0A0170008091C6000895F894FFCFB7
:04017A00FFBF0000C3
:00000001FF
