:100000000C9434000C943E000C943E000C943E0082
:100010000C943E000C943E000C943E000C943E0068
:100020000C943E000C943E000C943E000C943E0058
:100030000C943E000C943E000C943E000C943E0048
:100040000C943E000C943E000C943E000C943E0038
:100050000C943E000C943E000C943E000C943E0028
:100060000C943E000C943E0011241FBECFEFD8E04C
:10007000DEBFCDBF0E9440000C9471000C940000C4
:1000800040E068E270E087E290E00E944A0088B1B8
:1000900088B9F6CFFB012FE0DC012C93408381E08F
:1000A00080838FE493EC0197F1F700C0000082E0B9
:1000B0008083AFE4B3EC1197F1F700C0000084E057
:1000C00080838FE493EC0197F1F700C0000088E093
:1000D0008083AFE4B3EC1197F1F700C000004083D8
:0600E0000895F894FFCF23
:00000001FF
