:100000000C9434000C943E000C943E000C943E0082
:100010000C943E000C943E000C943E000C943E0068
:100020000C943E000C943E000C943E000C943E0058
:100030000C943E000C943E000C943E000C943E0048
:100040000C943E000C943E000C943E000C943E0038
:100050000C943E000C943E000C943E000C943E0028
:100060000C943E000C943E0011241FBECFEFD8E04C
:10007000DEBFCDBF0E9440000C945E000C940000D7
:1000800087E690E00E944B000E9456008136C1F73F
:100090003D9A459AF5CF9093C5008093C40088E1BE
:1000A0008093C1008EE08093C2000895E0ECF0E000
:1000B00080818823ECF78091C6000895F894FFCFE3
:00000001FF
