S01700004763634170706C69636174696F6E312E737265635B
S11300000C942A000C943F000C943F000C943F0085
S11300100C943F000C943F000C943F000C943F0060
S11300200C943F000C943F000C943F000C943F0050
S11300300C943F000C943F000C943F000C943F0040
S11300400C943F000C943F000C943F000C943F0030
S11300500C943F0011241FBECFE5D8E0DEBFCDBF16
S113006010E0A0E6B0E0EAECF0E002C005900D92EA
S1130070A036B107D9F70E9451000C9463000C9488
S113008000003E9A86B18E6886B9089597B187704C
S1130090987F982B97B9369A3699FECF84B195B14B
S11300A008958FEF84BB15BA0E94410080E090E070
S11300B00E9446008115924018F4AF98AE9AF6CF8C
S10D00C0AF9AAE98F3CFF894FFCF87
S9030000FC
