:100000000C942A000C9434000C9434000C943400AA
:100010000C9434000C9434000C9434000C94340090
:100020000C9434000C9434000C9434000C94340080
:100030000C9434000C9434000C9434000C94340070
:100040000C9434000C9434000C9434000C94340060
:100050000C94340011241FBECFE5D4E0DEBFCDBF29
:100060000E9436000C944A000C940000BB9A0E9437
:10007000460080E08CBF2FE33DE093E0215030400C
:100080009040E1F700C000008F5FF4CF83B789662E
:0800900083BF0895F894FFCF2F
:00000001FF
